:020000040800F2
:100000000000012059090008F1080008F308000861
:10001000F5080008F7080008F908000800000000CB
:10002000000000000000000000000000FB080008C5
:10003000FD08000800000000FF0800080109000892
:10004000A1090008A1090008A1090008A1090008E8
:10005000A1090008A1090008A1090008A1090008D8
:10006000A1090008A1090008A1090008A1090008C8
:10007000A1090008A1090008A1090008A1090008B8
:10008000A1090008A1090008A1090008A1090008A8
:10009000A1090008A1090008A1090008A109000898
:1000A000A1090008A1090008A1090008A109000888
:1000B000A1090008A1090008A1090008A109000878
:1000C000A1090008A1090008A1090008A109000868
:1000D000A1090008A1090008A1090008A109000858
:1000E000A1090008A1090008A1090008A109000848
:1000F000A1090008A1090008A1090008A109000838
:10010000A1090008A1090008A1090008A109000827
:10011000A1090008A1090008A1090008A109000817
:10012000A1090008A1090008A1090008A109000807
:1001300000000000000000000000000000000000BF
:1001400000000000000000000000000000000000AF
:10015000000000000000000000000000000000009F
:10016000000000000000000000000000000000008F
:10017000000000000000000000000000000000007F
:10018000000000000000000000000000000000006F
:10019000000000000000000000000000000000005F
:1001A000000000000000000000000000000000004F
:1001B000000000000000000000000000000000003F
:1001C000000000000000000000000000000000002F
:1001D000000000000000000000000000000000001F
:0401E0005FF8E0F1F3
:1001E40010B5054C237833B9044B13B10448AFF36D
:1001F40000800123237010BD54080020000000007B
:10020400941D000808B5034B1BB103490348AFF321
:10021400008008BD0000000058080020941D00085C
:1002240038B50446144D28700130000101F0CCF8B3
:10023400686000232B722B7ADBB29C4218D92B46C0
:1002440000211A7A00EB021211711A7A00EB0212E1
:1002540091601A7A00EB0212D1601A7A120181506D
:100264001A7A0132D2B21A721A7AD2B2A242E8D3FC
:10027400014B00221A7238BD7008002030B44FEAD6
:10028400001C0D4C646804EB001054F80C507DB94C
:1002940044F80C10037182600023C36054F80C30DE
:1002A40043B10079C0B2022818BF012030BC7047A6
:1002B4000220FBE70220F9E77008002010B5154B77
:1002C4001A78FAB15B68013AD2B203F1100C0CEB64
:1002D400021C00244FF0010E02E01033634511D0DC
:1002E4001A68002AF9D0DA680132DA60D8689A68A4
:1002F4009042F2D3DC601A79D2B2022A18BF83F892
:1003040004E0EAE7034BDB681BB1024AD368013B14
:10031400D36010BD7008002008B5124C0026354685
:100324002572237ADBB222789A42F9D96268237A59
:1003340002EB03131B79DBB2012B09D0237A0133BF
:10034400DBB22372237ADBB222789A42EED8E7E753
:10035400237A02EB03131E71237A1B01D3589847A7
:10036400ECE700BF7008002010B41A4A002313728F
:10037400137ADBB292F800C0634528D25468137A2A
:100384001B01E3584BB1137A0133DBB21372137AB6
:10039400DBB26345F3D3022017E00E4B1A7A120145
:1003A400A0501A7A04EB0212002010711A7A04EB9E
:1003B400021291601A7A04EB0212D0601B7A1B01BC
:1003C400E35883420CBF0220012010BC7047022076
:1003D400FBE700BF700800200C4A5368127A03EB55
:1003E4000212926882420ED0084A117A03EB01117C
:1003F4008860117A03EB01110020C860127A03EBC4
:100404000213187170470120704700BF7008002064
:10041400044B5B6803EB001081600023C36003712D
:10042400704700BF70080020024B5B6803EB0013A9
:100434009868704770080020024B5B6803EB001358
:10044400D868704770080020034A117A536803EB98
:1004540001139868704700BF70080020034A117A9E
:10046400536803EB0113D868704700BF700800207D
:10047400034B5B6803EB001001710023C3607047FA
:100484007008002010B582B004460C4B1B692BB1D8
:100494000A4B1B690DF1070100209847074A53686E
:1004A40003EB041301211971136923B113690DF1CD
:1004B40007010020984702B010BD00BF700800205B
:1004C40010B582B004460C4B1B692BB10A4B1B6957
:1004D4000DF1070100209847074A536803EB041302
:1004E40000211971136923B113690DF1070101206A
:1004F400984702B010BD00BF70080020034BD860BD
:100504001A46D368002BFCD1704700BF7008002046
:10051400034BD8601A46D368002BFCD1704700BF48
:10052400700800200138B0F1FF3FFBD1704701385B
:10053400B0F1FF3FFBD17047034B1B6903B1704718
:10054400014B1861FBE700BF7008002030B5BDF80F
:100554000C50154C20605C084480032B0FD9A2F189
:10056400020E4FF0000C3EF8023FB3FBF5F3AEF879
:1005740000300CF1010C4488631E6345F3DC04F184
:100584000044013C32F814304FF6FF7C63451CBF35
:10059400B3FBF5F322F81430826001801388838062
:1005A4004388C38030BD00BF84080020024B18601C
:1005B4009A809960704700BF84080020F8B5194BF1
:1005C4009B88002B2DD00024164D4FF6FF760BE0B0
:1005D4008B681B888B80AB6830F822009847013405
:1005E400AA88A3B29A421CD9A3B203EB4302286897
:1005F40000EB82018B88B342F1D0013B9BB28B802C
:10060400002BECD18F6802378F60CB88013B9BB203
:10061400CB80002BDCD14B88CB80A7EB43078F60CA
:10062400D6E7F8BD840800207047000008B5012310
:100634004FF4FA720A491846FFF720FE012808D140
:100644000123642207490020FFF718FE012803D183
:1006540008BD00F0D7F8F3E700F0D4F8F8E700BFDE
:100664002D060008C105000808B5642000F0E2F971
:100674000220FFF7D5FD00F055F808BD0A4B1B68B2
:100684000A4AA2FB03239B09013BB3F1807F0AD2F0
:100694004FF0E0225361064BF02183F8231000232E
:1006A400936107231361704704000020D34D621047
:1006B40000ED00E0EFF31080B0FA80F040097047DD
:1006C40010B50C4610B1012805D010BDFFF7F2FF9C
:1006D400207072B6F9E70B780BB162B6F5E772B623
:1006E400F3E7000008B5FFF7C9FF0248FFF724FF4E
:1006F40008BD00BFC506000808B520B1012807D011
:1007040000F080F803E02021044800F02BFB08BD32
:100714002021034800F026FBF9E700BF0018014040
:10072400000C014010B582B0074C642300930423ED
:10073400064A00212046FFF709FF02220449204609
:10074400FFF734FF02B010BD900800200000002025
:10075400FD0600082DE9F04188B0002304930593B9
:100764000693079303F1804303F504339A6942F037
:1007740040029A619A6902F040020092009A9A69D2
:1007840042F010029A619A6902F010020192019AF1
:100794009A6942F004029A619A6902F00402029290
:1007A400029A9A6942F008029A619B6903F008036D
:1007B4000393039BDFF8448001222021404600F08C
:1007C400CBFA0F4D01222021284600F0C5FA20273C
:1007D40004970124059406940326079604A9404629
:1007E40000F09AF9049705940694079604A92846FC
:1007F40000F092F908B0BDE8F08100BF0018014094
:10080400000C014072B6FEE700B591B02822002129
:1008140006A801F08DF80023019302930393049337
:100824000593012206924FF4803307930A92022221
:100834000D920E934FF4E0130F9306A800F0B2FA52
:1008440080B90F23019302210291002303934FF4F3
:1008540080620492059301A800F0D6FC20B911B07F
:100864005DF804FBFFF7CEFFFFF7CCFF08B500F0FF
:10087400BDF8FFF7C9FFFFF76DFFFFF733FFFFF781
:10088400F3FEFFF7D3FEFFF747FD2021054800F0F4
:1008940069FA642000F0CEF82021034800F062FADF
:1008A400F3E700BF00180140000C014082B00D4B7B
:1008B4009A6942F001029A619A6902F00102009277
:1008C400009ADA6942F08052DA61DB6903F08053FE
:1008D4000193019B044A536823F0E063536002B020
:1008E400704700BF0010024000000140FEE7FEE731
:1008F400FEE7FEE7FEE770477047704708B5FFF76D
:10090400DDFC00F085F808BD10B503460C4A0D491E
:100914000D48006840B10C4800680344521A9342E1
:1009240006D8094A136010BD0748084C0460F2E772
:1009340000F020FD0C2303604FF0FF30F3E700BF0D
:100944000000012000040000A8080020F008002096
:1009540070470000FFF7FCFF0B480C490C4A0023CA
:1009640002E0D458C4500433C4188C42F9D3094A61
:10097400094C002301E013600432A242FBD300F0CF
:10098400FFFCFFF773FF70470000002054080020AD
:10099400E01D000854080020F0080020FEE70000D5
:1009A40010B504460E4B18784FF47A73B3FBF0F38A
:1009B4000C4A1068B0FBF3F000F09AF868B90F2CF9
:1009C40001D901200AE0002221464FF0FF3000F057
:1009D40057F8054B1C60002000E0012010BD00BF4B
:1009E40008000020040000200C00002008B5074A7D
:1009F400136843F010031360032000F02FF80F2056
:100A0400FFF7CEFFFFF752FF002008BD0020024091
:100A1400034A1168034B1B780B441360704700BFF3
:100A2400AC08002008000020014B1868704700BF84
:100A3400AC08002038B50446FFF7F6FF0546B4F1CC
:100A4400FF3F02D0044B1B781C44FFF7EDFF401B13
:100A5400A042FAD338BD00BF08000020074AD3687B
:100A640023F4E0631B041B0C000200F4E060034366
:100A740043F0BF6343F40033D360704700ED00E0FC
:100A840000B5194BDB68C3F30223C3F1070CBCF1B7
:100A9400040F28BF4FF0040C03F1040EBEF1060F3F
:100AA40018D9033B4FF0FF3E0EFA0CFC21EA0C016F
:100AB40099400EFA03F322EA0303194300280BDBDF
:100AC4000901C9B200F1604000F5614080F80013EB
:100AD4005DF804FB0023E5E700F00F000901C9B24B
:100AE400024B1954F4E700BF00ED00E014ED00E000
:100AF4000138B0F1807F0BD24FF0E0235861054AF2
:100B0400F02182F823100020986107221A617047AF
:100B14000120704700ED00E070B582B00024A446C7
:100B2400B0E0874DAA4210D007D9864DAA420CD016
:100B340005F58035AA4208D013E0A5F58015AA4230
:100B440003D005F57025AA4207D18A68002A62D02D
:100B5400012A5BD04361082403E0A5F58015AA426D
:100B6400F3D0BEF1FF0F58D80646BEF1FF0F56D89A
:100B74004FEA8C0233680F25954023EA050304FAF3
:100B840002F2134333604B6813F0805F78D06E4BEE
:100B94009A6942F001029A619B6903F0010301938F
:100BA400019B4FEA9C02951C684B53F825600CF09E
:100BB40003039D000F23AB4026EA0306644B9842CF
:100BC40033D003F58063984200F0988003F5806386
:100BD400984200F0958003F58063984200F092807B
:100BE40003F58063984200F08F8003F58063984298
:100BF40019D006231AE0CC68B3E7CC680434B0E714
:100C0400CC680834ADE7CC680C34AAE70361082447
:100C1400A7E70024A5E70424A3E7061DA5E7ACF194
:100C240008029200A6E7052300E00023AB4033430B
:100C34000232464D45F822304B6813F4801F65D0CC
:100C4400444A936843EA0E0393604B6813F4001F0D
:100C540062D0404AD36843EA0E03D3604B6813F46E
:100C6400003F5FD03B4A536843EA0E0353604B682E
:100C740013F4803F5CD0374A136843EA0E031360D1
:100C84000CF1010C0A6832FA0CF357D0012303FA71
:100C94000CF302EA030E33EA0202F1D14A68122A83
:100CA4003FF63FAF122A3FF65CAF01A555F822F09C
:100CB4004F0B0008FB0B0008050C0008170C00087C
:100CC400670B0008670B0008670B0008670B000838
:100CD400670B0008670B0008670B0008670B000828
:100CE400670B0008670B0008670B0008670B000818
:100CF400670B0008FF0B00080B0C0008012395E7A5
:100D0400022393E7032391E704238FE7114A9368AF
:100D140023EA0E03936098E70E4AD36823EA0E038E
:100D2400D3609BE70B4A536823EA0E0353609EE7A4
:100D3400084A136823EA0E031360A1E702B070BDEA
:100D44000000221000003110001002400000014099
:100D540000080140000401400AB101617047090420
:100D640001617047C36801EA030221EA030141EA11
:100D7400024101617047000082B0084B1B68084AB9
:100D8400A2FB03235B0A00FB03F3019300BF019B57
:100D94005A1E0192002BF9D102B0704704000020C2
:100DA400D34D6210002800F0F18170B582B0044682
:100DB400036813F0010F2CD0994B5B6803F00C030C
:100DC400042B1DD0964B5B6803F00C03082B12D048
:100DD4006368B3F5803F41D0002B55D103F18043C4
:100DE40003F504331A6822F480321A601A6822F474
:100DF40080221A6037E08A4B5B6813F4803FE7D0A7
:100E0400874B1B6813F4003F03D06368002B00F08A
:100E1400BF81236813F0020F75D0814B5B6813F018
:100E24000C0F5FD07E4B5B6803F00C03082B54D08F
:100E34002369002B00F08A807A4B01221A60FFF7A5
:100E4400F3FD0546764B1B6813F0020F75D1FFF7CF
:100E5400EBFD401B0228F5D903209EE1704A13687C
:100E640043F480331360636843B3FFF7DDFD054645
:100E74006B4B1B6813F4003FCBD1FFF7D5FD401B30
:100E84006428F5D9032088E1B3F5A02F09D0644B79
:100E94001A6822F480321A601A6822F480221A60D6
:100EA400E1E703F18043A3F53C331A6842F480225E
:100EB4001A601A6842F480321A60D4E7FFF7B4FD6E
:100EC4000546574B1B6813F4003FA2D0FFF7ACFD57
:100ED400401B6428F5D903205FE1514B5B6813F490
:100EE400803FA5D14E4B1B6813F0020F03D023693A
:100EF400012B40F04F814A4A136823F0F8036169DB
:100F040043EAC1031360236813F0080F33D0A369C5
:100F1400002B5CD0434B0122C3F88024FFF784FDEF
:100F240005463F4B5B6A13F0020F21D1FFF77CFDAE
:100F3400401B0228F5D903202FE1394A136823F016
:100F4400F803616943EAC1031360DCE7354B00220F
:100F54001A60FFF769FD0546314B1B6813F0020F59
:100F6400D1D0FFF761FD401B0228F5D9032014E11D
:100F74000120FFF701FF236813F0040F00F09680AF
:100F8400274BDB6913F0805F34D1254BDA6942F0DB
:100F94008052DA61DB6903F080530193019B0125E0
:100FA400214B1B6813F4807F26D0E368012B3DD0CE
:100FB400002B53D103F1804303F504331A6A22F062
:100FC40001021A621A6A22F004021A6233E0154B13
:100FD4000022C3F88024FFF727FD0546104B5B6A07
:100FE40013F0020FC7D0FFF71FFD401B0228F5D9ED
:100FF4000320D2E00025D3E70B4A136843F480733F
:101004001360FFF711FD0646074B1B6813F4807F3E
:10101400CBD1FFF709FD801B6428F5D90320BCE080
:101024000010024000004242007000405F4A136A10
:1010340043F001031362E36833B3FFF7F5FC06469C
:101044005A4B1B6A13F0020F2FD1FFF7EDFC801BE4
:1010540041F288339842F3D903209EE0052B09D04E
:10106400524B1A6A22F001021A621A6A22F004022E
:101074001A62E0E74D4B1A6A42F004021A621A6AD5
:1010840042F001021A62D6E7FFF7CEFC0646474B50
:101094001B6A13F0020F08D0FFF7C6FC801B41F255
:1010A40088339842F3D9032077E0E5B9E369002B4C
:1010B40072D03E4A526802F00C02082A56D0022B23
:1010C40017D03B4B00221A66FFF7AEFC0446374BA1
:1010D4001B6813F0007F47D0FFF7A6FC001B022813
:1010E400F5D9032059E0314AD36923F08053D36101
:1010F400DCE72F4B00221A66FFF796FC05462B4BC4
:101104001B6813F0007F06D0FFF78EFC401B0228FB
:10111400F5D9032041E0236AB3F5803F1AD023496F
:101124004B6823F47413226A606A024313434B60CE
:101134001F4B01221A66FFF777FC04461B4B1B6802
:1011440013F0007F0ED1FFF76FFC001B0228F5D9C6
:10115400032022E0154A536823F40033A1680B43AB
:101164005360DCE7002018E0002016E0012B16D0C5
:101174000E4B5B6803F48031226A914211D103F46F
:101184007013626A93420ED1002006E0012070477A
:10119400012002E0012000E0002002B070BD012027
:1011A400FBE70120F9E70120F7E700BF0010024048
:1011B400000042420F4B5B6803F00C02082A01D086
:1011C4000D487047C3F383420C49885C13F4803F95
:1011D4000BD0084B5B68C3F34043094AD35C064A0F
:1011E40002FB00F0B0FBF3F07047064B03FB00F08A
:1011F400704700BF0010024000127A00BC1D0008B6
:10120400CC1D000800093D00002800F0A08070B546
:101214000D460446524B1B6803F007038B420BD266
:101224004F4A136823F007030B431360136803F05A
:1012340007038B4240F08D80236813F0020F17D010
:1012440013F0040F04D0474A536843F4E063536037
:10125400236813F0080F04D0424A536843F46053E0
:101264005360404A536823F0F003A1680B43536072
:10127400236813F0010F31D06368012B20D0022BB7
:1012840025D0384A126812F0020F64D035494A68F2
:1012940022F0030213434B60FFF7C6FB0646314BB3
:1012A4005B6803F00C036268B3EB820F16D0FFF7A0
:1012B400BBFB801B41F288339842F0D9032045E000
:1012C400284A126812F4003FE0D101203EE0254A8A
:1012D400126812F0007FD9D1012037E0204B1B683F
:1012E40003F00703AB420AD91D4A136823F007032E
:1012F4002B431360136803F00703AB422DD123681B
:1013040013F0040F06D0174A536823F4E063E1682E
:101314000B435360236813F0080F07D0114A536836
:1013240023F46053216943EAC1035360FFF742FF8A
:101334000C4B5B68C3F303130B4AD35CD8400B4BD1
:1013440018600B4B1868FFF72BFB002070BD0120C1
:1013540070470120FAE70120F8E70120F6E700BF13
:101364000020024000100240AC1D000804000020D0
:101374000C000020014B1868704700BF10000020CB
:1013840070B50D4E0D4D761BB61006D0002455F8E1
:10139400043B01349847A642F9D1094E094D00F0A7
:1013A400F7FC761BB61006D0002455F8043B013434
:1013B4009847A642F9D170BDD41D0008D41D000879
:1013C400DC1D0008D41D0008024B0146186800F01B
:1013D40003B800BF100000202DE9F04F01F10B0508
:1013E400162D064683B025D8102900F2B88000F0E7
:1013F400F1FA102518224FF0020CB54F3A44536805
:10140400A2F108018B4200F0B7805A68D96822F033
:1014140003021A449C683046E1608C60516803F111
:10142400080441F00101516000F0DAFA204603B0EB
:10143400BDE8F08F35F0070500F19180A94200F274
:101444008E8000F0C7FAB5F5FC7FC0F094816B0A7A
:1014540000F08C80042B00F26A81AB0903F1390C93
:1014640003F138044FEACC00994F384443680838F4
:10147400984206D10CE0002980F22681DB6898426C
:1014840006D05A6822F00302511B0F29F3DDA4464B
:101494003C69DFF840E274457AD0626822F00302C6
:1014A400531B0F2B00F37681002BC7E904EE80F267
:1014B4006781B2F5007F80F019810121D3085209B8
:1014C4000B4491407A6857F833000A4307EBC30191
:1014D4000839A060E1607A6047F83340C4600121B4
:1014E4004FEAAC039940914259D8114206D12CF0ED
:1014F400030C490011420CF1040CFAD007EBCC099F
:1015040048466446D0F80C80404508D11CE1002BC5
:1015140080F22181D8F80C80404500F01581D8F87C
:10152400042022F00302531B0F2BF0DD08EB05010E
:1015340045F00105C8F804503046D8E90264F46067
:10154400A66043F00104C7E904114C60C1E902EE4E
:1015540048F8023000F044FA08F1080402E00C23D1
:1015640000243360204603B0BDE8F08F4FF40070D0
:101574004FF0400C3F2477E7D3689A4208BF0CF140
:10158400020C7FF442AF3C69DFF848E1744584D132
:1015940001217A684FEAAC0399409142A5D9BC680D
:1015A400636823F003094D4503D8A9EB05030F2B0A
:1015B4007ADCDFF824B1494BDBF800201B680132E8
:1015C4002B4404EB090A00F02F8103F580530F33F9
:1015D40023F47F6828F00F084146304600F006FAED
:1015E400411C024600F0EF80824500F2EA803C4B49
:1015F400196841440846196000F04981DBF800107D
:10160400019301311BBFA2EB0A0A5044CBF800201E
:10161400186012F0070B00F01181CBF108010A44A5
:10162400CBF5805190440831A1EB0801C1F30B0ABA
:1016340051463046009200F0D9F9421CDDE90023FE
:1016440000F04B81801A00EB0A08196848F0010089
:101654005144BC42BA601960506000F02481B9F171
:101664000F0F40F222814FF0050E6068A9F10C0CB7
:101674002CF0070C00F0010040EA0C006060BCF1A3
:101684000F0F04EB0C00C0E901EE00F22E811446AA
:101694005068144B1A688A4238BF1960124B1A6892
:1016A4008A4238BF196090E0621943F0010345F0A3
:1016B400010565603046BA600834536000F090F963
:1016C400204603B0BDE8F08FD9681A44A2E600BFF3
:1016D400400400204804002048080020E0080020BE
:1016E400B0080020D8080020DC080020B2F5206FE4
:1016F4004FEA52235FD3142B00F2B18003F15C0153
:10170400C9005B33781879580838884200F08F8014
:101714004B6823F00303934202D989688842F7D1C6
:10172400C8687A68C4E902108460CC60D7E6142BD8
:1017340059D9542B00F29B802B0B03F16F0C03F14E
:101744006E044FEACC008FE60134A30700F10800D1
:101754007FF4D8AE53E0444642445368D8F80C10A2
:1017640043F00103536054F8083F3046D9608B605E
:1017740000F036F9F6E64FEAD50C05F108023CE62E
:1017840022445368304643F00103536000F028F9C3
:101794000834E7E6611945F00105656043F0010589
:1017A400C7E904113046C1E902EE4D60A35000F0D0
:1017B40017F90834D6E6930903F13901C90038331F
:1017C400A0E7BC425ED0BC68606820F003084545D1
:1017D400A8EB050302D80F2B3FF766AF304600F0A5
:1017E400FFF80024BEE603F15C0C03F15B044FEA4E
:1017F400CC0039E659F808394B4540F095801CF087
:10180400030F0CF1FF3CF5D17B6823EA01037B60F5
:10181400490099423FF6C3AE11B9C0E64900043409
:101824001942FBD0A44669E603F11008D4E601226C
:101834009B109A407B681A437A6073E702EB0801B5
:101844004942C1F30B0A51463046009200F0CEF8EB
:10185400431CDDE900237FF4F5AEDA46F5E6542BAC
:1018640026D8130B03F16F01C9006E334AE7B3F5B1
:10187400AA7F26D8EB0B03F1780C03F177044FEA27
:10188400CC00F1E5294B186840441860B6E6CAF369
:101894000B0CBCF1000F7FF4B1AEBC68C84448F037
:1018A40001006060F5E61446F3E60123536095E712
:1018B400B3F5AA7F24D8D30B03F17801C900773399
:1018C40020E740F25452934224D8AB0C03F17D0C30
:1018D40003F17C044FEACC00C6E5ABF1080BD84415
:1018E4004FF0000AA8EB0208AFE604F10801304605
:1018F400009300F003F9BC68009B60681968C8E6AF
:1019040040F254518B420BD8930C03F17D01C90072
:101914007C33F7E64FF47E704FF07F0C7E24A3E512
:101924004FF47E717E23EDE67B6871E7B0080020FA
:10193400830730B548D0541E002A3FD00346CAB2AC
:1019440001E0013C3AD303F8012B9D07F9D1032CA4
:101954002DD9CDB245EA05250F2C45EA054536D9E2
:10196400A4F1100222F00F0C03F1200EE6444FEA1A
:10197400121C03F1100242E9045542E902551032E7
:101984007245F8D10CF1010214F00C0F03EB0212B2
:1019940004F00F0C13D0ACF1040323F0030304335D
:1019A400134442F8045B9342FBD10CF003042CB1C2
:1019B400CAB21C4403F8012B9C42FBD130BD6446DF
:1019C4001346002CF4D1F9E703461446BFE71A4640
:1019D400A446E0E7014800F091B900BFE808002000
:1019E400014800F08DB900BFE8080020002238B596
:1019F400064D044608462A60FEF786FF431C00D0C5
:101A040038BD2B68002BFBD0236038BDEC080020C8
:101A1400024B13B1024800F005B870470000000003
:101A2400351A0008002301461A46184600F06AB920
:101A340038B5084B084D5B1B9C1007D0043B1D4474
:101A4400013C55F804399847002CF9D1BDE83840D9
:101A540000F0A4B9E01D0008DC1D0008F8B50C4630
:101A6400234F0646FFF7B6FFBB685D68C4F57E6387
:101A740025F003050F332B4423F47F6323F00F0376
:101A8400A3F58054B4F5805F07DB00213046FFF7EF
:101A9400ADFFBB682B44984204D03046FFF7A0FF4B
:101AA4000020F8BD30466142FFF7A0FF01300DD0A1
:101AB400104ABB682D1B45F001055D601368304674
:101AC4001B1B1360FFF78CFF0120F8BD002130467B
:101AD400FFF78CFFBA68831A0F2BDEDD43F0010396
:101AE4005360054B03491B68C01A0860D5E700BF63
:101AF40040040020B00800204808002000295ED0DF
:101B0400F8B50C460646FFF765FF54F8042C784FE9
:101B1400A4F1080522F001016818D7F808C0436849
:101B2400844523F0030300F08780D207436034D454
:101B340054F8082C07F10804AD1A1144AA68A2420B
:101B440068D000EB030CDCF804E0D5F80CC01EF000
:101B5400010FC2F80CC0CCF8082000F0918041F0CD
:101B640001036B600160B1F5007F31D24A09CB08F3
:101B7400012191407A6801331143796007EBC30274
:101B840057F83310083AC5E9021247F83350CD60CC
:101B94003046BDE8F840FFF723BFC2185268D207A9
:101BA4000ED4194407F108048368A34270D0C268B4
:101BB400DA60936041F001036B606950D3E77047CA
:101BC40041F00103B1F5007F44F8043C0160CDD33A
:101BD400B1F5206F4FEA512347D28B0903F1390045
:101BE40003F13802C300F818FB580838984258D05B
:101BF4005A6822F003028A4202D99B689842F7D1BC
:101C0400D868C5E9023085603046DD60BDE8F8403B
:101C1400FFF7E6BEC2185268D20763D40B44D0E97A
:101C24000212CA60916043F001026A603046EB50D0
:101C3400BDE8F840FFF7D4BE0B44D10707D454F8ED
:101C4400082CAD1A1344D5E90212CA60916043F01E
:101C540001026A60274ABD6012689A4298D8264BEE
:101C640030461968FFF7FAFE92E7142B0AD9542B71
:101C74001FD80B0B03F16F0003F16E02C300B2E730
:101C8400194491E703F15C0003F15B02C300AAE786
:101C940041F00103C7E90455C5E902446B6069508A
:101CA40076E70121921001FA02F279680A437A6018
:101CB400A7E7B3F5AA7F06D8CB0B03F1780003F1AD
:101CC4007702C3008FE740F25452934206D88B0C3C
:101CD40003F17D0003F17C02C30084E74FF47E73BB
:101CE4007E2280E741F001036B60016050E700BF92
:101CF400400400204C080020E0080020704700BF8A
:101D0400704700BF2DE9F047DFF87CA00646DAF8FB
:101D1400000098460F469146FFF7F0FF1B4B1B68E7
:101D2400D3F8484124B365681F2D26DC5EB96B1CCB
:101D34000235DAF80000636044F82570FFF7E0FF2D
:101D44000020BDE8F087012304EB8501C1F88890E9
:101D5400D4F88821AB401A43022EC4F88821C1F874
:101D64000881E4D1D4F88C211343C4F88C31DEE724
:101D740003F5A674C3F84841D5E7DAF80000FFF785
:101D8400BFFF4FF0FF30DCE750080020D01D0008F3
:101D9400F8B500BFF8BC08BC9E467047F8B500BF54
:081DA400F8BC08BC9E46704724
:101DAC0000000000000000000102030406070809FF
:101DBC0002030405060708090A0B0C0D0E0F101080
:081DCC000102000018000020D4
:081DD400151A000809020008BD
:041DDC00E501000815
:101DE000640064000024F400010000001000000002
:101DF0001800002000000000000000000403002084
:101E00006C030020D403002000000000000000004C
:101E100000000000000000000000000000000000C2
:101E200000000000000000000000000000000000B2
:101E300000000000000000000000000000000000A2
:101E40000000000000000000000000000000000092
:101E50000000000000000000000000000000000082
:101E60000000000000000000000000000000000072
:101E70000000000000000000000000000000000062
:101E80000000000000000000000000000000000052
:101E90000000000000000000000000000000000042
:101EA00001000000000000000E33CDAB34126DE6DF
:101EB000ECDE05000B000000000000000000000048
:101EC0000000000000000000000000000000000012
:101ED0000000000000000000000000000000000002
:101EE00000000000000000000000000000000000F2
:101EF00000000000000000000000000000000000E2
:1022200000000000000000004004002040040020E6
:1022300048040020480400205004002050040020DE
:10224000580400205804002060040020600400208E
:10225000680400206804002070040020700400203E
:1022600078040020780400208004002080040020EE
:10227000880400208804002090040020900400209E
:102280009804002098040020A0040020A00400204E
:10229000A8040020A8040020B0040020B0040020FE
:1022A000B8040020B8040020C0040020C0040020AE
:1022B000C8040020C8040020D0040020D00400205E
:1022C000D8040020D8040020E0040020E00400200E
:1022D000E8040020E8040020F0040020F0040020BE
:1022E000F8040020F804002000050020000500206C
:1022F000080500200805002010050020100500201A
:1023000018050020180500202005002020050020C9
:102310002805002028050020300500203005002079
:102320003805002038050020400500204005002029
:1023300048050020480500205005002050050020D9
:102340005805002058050020600500206005002089
:102350006805002068050020700500207005002039
:1023600078050020780500208005002080050020E9
:102370008805002088050020900500209005002099
:102380009805002098050020A0050020A005002049
:10239000A8050020A8050020B0050020B0050020F9
:1023A000B8050020B8050020C0050020C0050020A9
:1023B000C8050020C8050020D0050020D005002059
:1023C000D8050020D8050020E0050020E005002009
:1023D000E8050020E8050020F0050020F0050020B9
:1023E000F8050020F8050020000600200006002067
:1023F0000806002008060020100600201006002015
:1024000018060020180600202006002020060020C4
:102410002806002028060020300600203006002074
:102420003806002038060020400600204006002024
:1024300048060020480600205006002050060020D4
:102440005806002058060020600600206006002084
:102450006806002068060020700600207006002034
:1024600078060020780600208006002080060020E4
:102470008806002088060020900600209006002094
:102480009806002098060020A0060020A006002044
:10249000A8060020A8060020B0060020B0060020F4
:1024A000B8060020B8060020C0060020C0060020A4
:1024B000C8060020C8060020D0060020D006002054
:1024C000D8060020D8060020E0060020E006002004
:1024D000E8060020E8060020F0060020F0060020B4
:1024E000F8060020F8060020000700200007002062
:1024F0000807002008070020100700201007002010
:1025000018070020180700202007002020070020BF
:10251000280700202807002030070020300700206F
:10252000380700203807002040070020400700201F
:1025300048070020480700205007002050070020CF
:10254000580700205807002060070020600700207F
:10255000680700206807002070070020700700202F
:1025600078070020780700208007002080070020DF
:10257000880700208807002090070020900700208F
:102580009807002098070020A0070020A00700203F
:10259000A8070020A8070020B0070020B0070020EF
:1025A000B8070020B8070020C0070020C00700209F
:1025B000C8070020C8070020D0070020D00700204F
:1025C000D8070020D8070020E0070020E0070020FF
:1025D000E8070020E8070020F0070020F0070020AF
:1025E000F8070020F807002000080020000800205D
:1025F000080800200808002010080020100800200B
:1026000018080020180800202008002020080020BA
:10261000280800202808002030080020300800206A
:102620003808002038080020FFFFFFFF00000200EC
:04263000E40800209A
:04000005080009598D
:00000001FF
